{
    "_format": "hh-sol-artifact-1",
    "contractName": "Collection",
    "sourceName": "contracts/Collection.sol",
    "abi": [
        {
            "inputs": [],
            "stateMutability": "nonpayable",
            "type": "constructor"
        },
        {
            "inputs": [
                {
                    "internalType": "address",
                    "name": "sender",
                    "type": "address"
                },
                {
                    "internalType": "uint256",
                    "name": "tokenId",
                    "type": "uint256"
                },
                {
                    "internalType": "address",
                    "name": "owner",
                    "type": "address"
                }
            ],
            "name": "ERC721IncorrectOwner",
            "type": "error"
        },
        {
            "inputs": [
                {
                    "internalType": "address",
                    "name": "operator",
                    "type": "address"
                },
                {
                    "internalType": "uint256",
                    "name": "tokenId",
                    "type": "uint256"
                }
            ],
            "name": "ERC721InsufficientApproval",
            "type": "error"
        },
        {
            "inputs": [
                {
                    "internalType": "address",
                    "name": "approver",
                    "type": "address"
                }
            ],
            "name": "ERC721InvalidApprover",
            "type": "error"
        },
        {
            "inputs": [
                {
                    "internalType": "address",
                    "name": "operator",
                    "type": "address"
                }
            ],
            "name": "ERC721InvalidOperator",
            "type": "error"
        },
        {
            "inputs": [
                {
                    "internalType": "address",
                    "name": "owner",
                    "type": "address"
                }
            ],
            "name": "ERC721InvalidOwner",
            "type": "error"
        },
        {
            "inputs": [
                {
                    "internalType": "address",
                    "name": "receiver",
                    "type": "address"
                }
            ],
            "name": "ERC721InvalidReceiver",
            "type": "error"
        },
        {
            "inputs": [
                {
                    "internalType": "address",
                    "name": "sender",
                    "type": "address"
                }
            ],
            "name": "ERC721InvalidSender",
            "type": "error"
        },
        {
            "inputs": [
                {
                    "internalType": "uint256",
                    "name": "tokenId",
                    "type": "uint256"
                }
            ],
            "name": "ERC721NonexistentToken",
            "type": "error"
        },
        {
            "inputs": [
                {
                    "internalType": "address",
                    "name": "owner",
                    "type": "address"
                }
            ],
            "name": "OwnableInvalidOwner",
            "type": "error"
        },
        {
            "inputs": [
                {
                    "internalType": "address",
                    "name": "account",
                    "type": "address"
                }
            ],
            "name": "OwnableUnauthorizedAccount",
            "type": "error"
        },
        {
            "anonymous": false,
            "inputs": [
                {
                    "indexed": true,
                    "internalType": "address",
                    "name": "owner",
                    "type": "address"
                },
                {
                    "indexed": true,
                    "internalType": "address",
                    "name": "approved",
                    "type": "address"
                },
                {
                    "indexed": true,
                    "internalType": "uint256",
                    "name": "tokenId",
                    "type": "uint256"
                }
            ],
            "name": "Approval",
            "type": "event"
        },
        {
            "anonymous": false,
            "inputs": [
                {
                    "indexed": true,
                    "internalType": "address",
                    "name": "owner",
                    "type": "address"
                },
                {
                    "indexed": true,
                    "internalType": "address",
                    "name": "operator",
                    "type": "address"
                },
                {
                    "indexed": false,
                    "internalType": "bool",
                    "name": "approved",
                    "type": "bool"
                }
            ],
            "name": "ApprovalForAll",
            "type": "event"
        },
        {
            "anonymous": false,
            "inputs": [
                {
                    "indexed": false,
                    "internalType": "uint256",
                    "name": "_fromTokenId",
                    "type": "uint256"
                },
                {
                    "indexed": false,
                    "internalType": "uint256",
                    "name": "_toTokenId",
                    "type": "uint256"
                }
            ],
            "name": "BatchMetadataUpdate",
            "type": "event"
        },
        {
            "anonymous": false,
            "inputs": [
                {
                    "indexed": false,
                    "internalType": "uint256",
                    "name": "_tokenId",
                    "type": "uint256"
                }
            ],
            "name": "MetadataUpdate",
            "type": "event"
        },
        {
            "anonymous": false,
            "inputs": [
                {
                    "indexed": true,
                    "internalType": "address",
                    "name": "previousOwner",
                    "type": "address"
                },
                {
                    "indexed": true,
                    "internalType": "address",
                    "name": "newOwner",
                    "type": "address"
                }
            ],
            "name": "OwnershipTransferred",
            "type": "event"
        },
        {
            "anonymous": false,
            "inputs": [
                {
                    "indexed": true,
                    "internalType": "address",
                    "name": "from",
                    "type": "address"
                },
                {
                    "indexed": true,
                    "internalType": "address",
                    "name": "to",
                    "type": "address"
                },
                {
                    "indexed": true,
                    "internalType": "uint256",
                    "name": "tokenId",
                    "type": "uint256"
                }
            ],
            "name": "Transfer",
            "type": "event"
        },
        {
            "inputs": [],
            "name": "LIMIT_PER_ADDRESS",
            "outputs": [
                {
                    "internalType": "uint256",
                    "name": "",
                    "type": "uint256"
                }
            ],
            "stateMutability": "view",
            "type": "function"
        },
        {
            "inputs": [],
            "name": "MAX_SUPPLY",
            "outputs": [
                {
                    "internalType": "uint256",
                    "name": "",
                    "type": "uint256"
                }
            ],
            "stateMutability": "view",
            "type": "function"
        },
        {
            "inputs": [],
            "name": "PRICE_PER_TOKEN",
            "outputs": [
                {
                    "internalType": "uint256",
                    "name": "",
                    "type": "uint256"
                }
            ],
            "stateMutability": "view",
            "type": "function"
        },
        {
            "inputs": [
                {
                    "internalType": "address",
                    "name": "to",
                    "type": "address"
                },
                {
                    "internalType": "uint256",
                    "name": "tokenId",
                    "type": "uint256"
                }
            ],
            "name": "approve",
            "outputs": [],
            "stateMutability": "nonpayable",
            "type": "function"
        },
        {
            "inputs": [
                {
                    "internalType": "address",
                    "name": "owner",
                    "type": "address"
                }
            ],
            "name": "balanceOf",
            "outputs": [
                {
                    "internalType": "uint256",
                    "name": "",
                    "type": "uint256"
                }
            ],
            "stateMutability": "view",
            "type": "function"
        },
        {
            "inputs": [
                {
                    "internalType": "uint256",
                    "name": "tokenId",
                    "type": "uint256"
                }
            ],
            "name": "getApproved",
            "outputs": [
                {
                    "internalType": "address",
                    "name": "",
                    "type": "address"
                }
            ],
            "stateMutability": "view",
            "type": "function"
        },
        {
            "inputs": [
                {
                    "internalType": "address",
                    "name": "owner",
                    "type": "address"
                },
                {
                    "internalType": "address",
                    "name": "operator",
                    "type": "address"
                }
            ],
            "name": "isApprovedForAll",
            "outputs": [
                {
                    "internalType": "bool",
                    "name": "",
                    "type": "bool"
                }
            ],
            "stateMutability": "view",
            "type": "function"
        },
        {
            "inputs": [
                {
                    "internalType": "string",
                    "name": "tokenURI",
                    "type": "string"
                }
            ],
            "name": "mintNFT",
            "outputs": [
                {
                    "internalType": "uint256",
                    "name": "",
                    "type": "uint256"
                }
            ],
            "stateMutability": "payable",
            "type": "function"
        },
        {
            "inputs": [],
            "name": "name",
            "outputs": [
                {
                    "internalType": "string",
                    "name": "",
                    "type": "string"
                }
            ],
            "stateMutability": "view",
            "type": "function"
        },
        {
            "inputs": [],
            "name": "owner",
            "outputs": [
                {
                    "internalType": "address",
                    "name": "",
                    "type": "address"
                }
            ],
            "stateMutability": "view",
            "type": "function"
        },
        {
            "inputs": [
                {
                    "internalType": "uint256",
                    "name": "tokenId",
                    "type": "uint256"
                }
            ],
            "name": "ownerOf",
            "outputs": [
                {
                    "internalType": "address",
                    "name": "",
                    "type": "address"
                }
            ],
            "stateMutability": "view",
            "type": "function"
        },
        {
            "inputs": [],
            "name": "renounceOwnership",
            "outputs": [],
            "stateMutability": "nonpayable",
            "type": "function"
        },
        {
            "inputs": [
                {
                    "internalType": "address",
                    "name": "from",
                    "type": "address"
                },
                {
                    "internalType": "address",
                    "name": "to",
                    "type": "address"
                },
                {
                    "internalType": "uint256",
                    "name": "tokenId",
                    "type": "uint256"
                }
            ],
            "name": "safeTransferFrom",
            "outputs": [],
            "stateMutability": "nonpayable",
            "type": "function"
        },
        {
            "inputs": [
                {
                    "internalType": "address",
                    "name": "from",
                    "type": "address"
                },
                {
                    "internalType": "address",
                    "name": "to",
                    "type": "address"
                },
                {
                    "internalType": "uint256",
                    "name": "tokenId",
                    "type": "uint256"
                },
                {
                    "internalType": "bytes",
                    "name": "data",
                    "type": "bytes"
                }
            ],
            "name": "safeTransferFrom",
            "outputs": [],
            "stateMutability": "nonpayable",
            "type": "function"
        },
        {
            "inputs": [
                {
                    "internalType": "address",
                    "name": "operator",
                    "type": "address"
                },
                {
                    "internalType": "bool",
                    "name": "approved",
                    "type": "bool"
                }
            ],
            "name": "setApprovalForAll",
            "outputs": [],
            "stateMutability": "nonpayable",
            "type": "function"
        },
        {
            "inputs": [
                {
                    "internalType": "uint256",
                    "name": "_limit",
                    "type": "uint256"
                }
            ],
            "name": "setLimit",
            "outputs": [],
            "stateMutability": "nonpayable",
            "type": "function"
        },
        {
            "inputs": [
                {
                    "internalType": "uint256",
                    "name": "_maxSupply",
                    "type": "uint256"
                }
            ],
            "name": "setMaxSupply",
            "outputs": [],
            "stateMutability": "nonpayable",
            "type": "function"
        },
        {
            "inputs": [
                {
                    "internalType": "uint256",
                    "name": "_price",
                    "type": "uint256"
                }
            ],
            "name": "setPrice",
            "outputs": [],
            "stateMutability": "nonpayable",
            "type": "function"
        },
        {
            "inputs": [
                {
                    "internalType": "bytes4",
                    "name": "interfaceId",
                    "type": "bytes4"
                }
            ],
            "name": "supportsInterface",
            "outputs": [
                {
                    "internalType": "bool",
                    "name": "",
                    "type": "bool"
                }
            ],
            "stateMutability": "view",
            "type": "function"
        },
        {
            "inputs": [],
            "name": "symbol",
            "outputs": [
                {
                    "internalType": "string",
                    "name": "",
                    "type": "string"
                }
            ],
            "stateMutability": "view",
            "type": "function"
        },
        {
            "inputs": [
                {
                    "internalType": "uint256",
                    "name": "tokenId",
                    "type": "uint256"
                }
            ],
            "name": "tokenURI",
            "outputs": [
                {
                    "internalType": "string",
                    "name": "",
                    "type": "string"
                }
            ],
            "stateMutability": "view",
            "type": "function"
        },
        {
            "inputs": [
                {
                    "internalType": "address",
                    "name": "from",
                    "type": "address"
                },
                {
                    "internalType": "address",
                    "name": "to",
                    "type": "address"
                },
                {
                    "internalType": "uint256",
                    "name": "tokenId",
                    "type": "uint256"
                }
            ],
            "name": "transferFrom",
            "outputs": [],
            "stateMutability": "nonpayable",
            "type": "function"
        },
        {
            "inputs": [
                {
                    "internalType": "address",
                    "name": "newOwner",
                    "type": "address"
                }
            ],
            "name": "transferOwnership",
            "outputs": [],
            "stateMutability": "nonpayable",
            "type": "function"
        },
        {
            "inputs": [],
            "name": "withdraw",
            "outputs": [],
            "stateMutability": "nonpayable",
            "type": "function"
        }
    ],
    "bytecode": "0x6080604052662386f26fc10000600c556002600d556005600e553480156200002657600080fd5b50336040518060400160405280600a81526020017f436f6c6c656374696f6e000000000000000000000000000000000000000000008152506040518060400160405280600381526020017f4e465400000000000000000000000000000000000000000000000000000000008152508160009081620000a5919062000487565b508060019081620000b7919062000487565b505050600073ffffffffffffffffffffffffffffffffffffffff168173ffffffffffffffffffffffffffffffffffffffff16036200012f5760006040517f1e4fbdf7000000000000000000000000000000000000000000000000000000008152600401620001269190620005b3565b60405180910390fd5b62000140816200014760201b60201c565b50620005d0565b6000600760009054906101000a900473ffffffffffffffffffffffffffffffffffffffff16905081600760006101000a81548173ffffffffffffffffffffffffffffffffffffffff021916908373ffffffffffffffffffffffffffffffffffffffff1602179055508173ffffffffffffffffffffffffffffffffffffffff168173ffffffffffffffffffffffffffffffffffffffff167f8be0079c531659141344cd1fd0a4f28419497f9722a3daafe3b4186f6b6457e060405160405180910390a35050565b600081519050919050565b7f4e487b7100000000000000000000000000000000000000000000000000000000600052604160045260246000fd5b7f4e487b7100000000000000000000000000000000000000000000000000000000600052602260045260246000fd5b600060028204905060018216806200028f57607f821691505b602082108103620002a557620002a462000247565b5b50919050565b60008190508160005260206000209050919050565b60006020601f8301049050919050565b600082821b905092915050565b6000600883026200030f7fffffffffffffffffffffffffffffffffffffffffffffffffffffffffffffffff82620002d0565b6200031b8683620002d0565b95508019841693508086168417925050509392505050565b6000819050919050565b6000819050919050565b600062000368620003626200035c8462000333565b6200033d565b62000333565b9050919050565b6000819050919050565b620003848362000347565b6200039c62000393826200036f565b848454620002dd565b825550505050565b600090565b620003b3620003a4565b620003c081848462000379565b505050565b5b81811015620003e857620003dc600082620003a9565b600181019050620003c6565b5050565b601f82111562000437576200040181620002ab565b6200040c84620002c0565b810160208510156200041c578190505b620004346200042b85620002c0565b830182620003c5565b50505b505050565b600082821c905092915050565b60006200045c600019846008026200043c565b1980831691505092915050565b600062000477838362000449565b9150826002028217905092915050565b62000492826200020d565b67ffffffffffffffff811115620004ae57620004ad62000218565b5b620004ba825462000276565b620004c7828285620003ec565b600060209050601f831160018114620004ff5760008415620004ea578287015190505b620004f6858262000469565b86555062000566565b601f1984166200050f86620002ab565b60005b82811015620005395784890151825560018201915060208501945060208101905062000512565b8683101562000559578489015162000555601f89168262000449565b8355505b6001600288020188555050505b505050505050565b600073ffffffffffffffffffffffffffffffffffffffff82169050919050565b60006200059b826200056e565b9050919050565b620005ad816200058e565b82525050565b6000602082019050620005ca6000830184620005a2565b92915050565b612d4c80620005e06000396000f3fe60806040526004361061014b5760003560e01c806370a08231116100b6578063a22cb4651161006f578063a22cb4651461046a578063b88d4fde14610493578063c87b56dd146104bc578063e985e9c5146104f9578063f2fde38b14610536578063fb37e8831461055f5761014b565b806370a082311461036c578063715018a6146103a9578063833b9499146103c05780638da5cb5b146103eb57806391b7f5ed1461041657806395d89b411461043f5761014b565b806332cb6b0c1161010857806332cb6b0c146102705780633ccfd60b1461029b578063417bac1a146102b257806342842e0e146102dd5780636352211e146103065780636f8b44b0146103435761014b565b806301ffc9a71461015057806306fdde031461018d578063081812fc146101b8578063095ea7b3146101f557806323b872dd1461021e57806327ea6f2b14610247575b600080fd5b34801561015c57600080fd5b5061017760048036038101906101729190611fc2565b61058f565b604051610184919061200a565b60405180910390f35b34801561019957600080fd5b506101a26105f0565b6040516101af91906120b5565b60405180910390f35b3480156101c457600080fd5b506101df60048036038101906101da919061210d565b610682565b6040516101ec919061217b565b60405180910390f35b34801561020157600080fd5b5061021c600480360381019061021791906121c2565b61069e565b005b34801561022a57600080fd5b5061024560048036038101906102409190612202565b6106b4565b005b34801561025357600080fd5b5061026e6004803603810190610269919061210d565b6107b6565b005b34801561027c57600080fd5b506102856107c8565b6040516102929190612264565b60405180910390f35b3480156102a757600080fd5b506102b06107ce565b005b3480156102be57600080fd5b506102c7610825565b6040516102d49190612264565b60405180910390f35b3480156102e957600080fd5b5061030460048036038101906102ff9190612202565b61082b565b005b34801561031257600080fd5b5061032d6004803603810190610328919061210d565b61084b565b60405161033a919061217b565b60405180910390f35b34801561034f57600080fd5b5061036a6004803603810190610365919061210d565b61085d565b005b34801561037857600080fd5b50610393600480360381019061038e919061227f565b61086f565b6040516103a09190612264565b60405180910390f35b3480156103b557600080fd5b506103be610929565b005b3480156103cc57600080fd5b506103d561093d565b6040516103e29190612264565b60405180910390f35b3480156103f757600080fd5b50610400610943565b60405161040d919061217b565b60405180910390f35b34801561042257600080fd5b5061043d6004803603810190610438919061210d565b61096d565b005b34801561044b57600080fd5b5061045461097f565b60405161046191906120b5565b60405180910390f35b34801561047657600080fd5b50610491600480360381019061048c91906122d8565b610a11565b005b34801561049f57600080fd5b506104ba60048036038101906104b5919061244d565b610a27565b005b3480156104c857600080fd5b506104e360048036038101906104de919061210d565b610a44565b6040516104f091906120b5565b60405180910390f35b34801561050557600080fd5b50610520600480360381019061051b91906124d0565b610b57565b60405161052d919061200a565b60405180910390f35b34801561054257600080fd5b5061055d6004803603810190610558919061227f565b610beb565b005b610579600480360381019061057491906125b1565b610c71565b6040516105869190612264565b60405180910390f35b6000634906490660e01b7bffffffffffffffffffffffffffffffffffffffffffffffffffffffff1916827bffffffffffffffffffffffffffffffffffffffffffffffffffffffff191614806105e957506105e882610f21565b5b9050919050565b6060600080546105ff90612629565b80601f016020809104026020016040519081016040528092919081815260200182805461062b90612629565b80156106785780601f1061064d57610100808354040283529160200191610678565b820191906000526020600020905b81548152906001019060200180831161065b57829003601f168201915b5050505050905090565b600061068d82611003565b506106978261108b565b9050919050565b6106b082826106ab6110c8565b6110d0565b5050565b600073ffffffffffffffffffffffffffffffffffffffff168273ffffffffffffffffffffffffffffffffffffffff16036107265760006040517f64a0ae9200000000000000000000000000000000000000000000000000000000815260040161071d919061217b565b60405180910390fd5b600061073a83836107356110c8565b6110e2565b90508373ffffffffffffffffffffffffffffffffffffffff168173ffffffffffffffffffffffffffffffffffffffff16146107b0578382826040517f64283d7b0000000000000000000000000000000000000000000000000000000081526004016107a79392919061265a565b60405180910390fd5b50505050565b6107be6112fc565b80600d8190555050565b600e5481565b6107d66112fc565b60003390508073ffffffffffffffffffffffffffffffffffffffff166108fc479081150290604051600060405180830381858888f19350505050158015610821573d6000803e3d6000fd5b5050565b600d5481565b61084683838360405180602001604052806000815250610a27565b505050565b600061085682611003565b9050919050565b6108656112fc565b80600e8190555050565b60008073ffffffffffffffffffffffffffffffffffffffff168273ffffffffffffffffffffffffffffffffffffffff16036108e25760006040517f89c62b640000000000000000000000000000000000000000000000000000000081526004016108d9919061217b565b60405180910390fd5b600360008373ffffffffffffffffffffffffffffffffffffffff1673ffffffffffffffffffffffffffffffffffffffff168152602001908152602001600020549050919050565b6109316112fc565b61093b6000611383565b565b600c5481565b6000600760009054906101000a900473ffffffffffffffffffffffffffffffffffffffff16905090565b6109756112fc565b80600c8190555050565b60606001805461098e90612629565b80601f01602080910402602001604051908101604052809291908181526020018280546109ba90612629565b8015610a075780601f106109dc57610100808354040283529160200191610a07565b820191906000526020600020905b8154815290600101906020018083116109ea57829003601f168201915b5050505050905090565b610a23610a1c6110c8565b8383611449565b5050565b610a328484846106b4565b610a3e848484846115b8565b50505050565b6060610a4f82611003565b506000600660008481526020019081526020016000208054610a7090612629565b80601f0160208091040260200160405190810160405280929190818152602001828054610a9c90612629565b8015610ae95780601f10610abe57610100808354040283529160200191610ae9565b820191906000526020600020905b815481529060010190602001808311610acc57829003601f168201915b505050505090506000610afa61176f565b90506000815103610b0f578192505050610b52565b600082511115610b44578082604051602001610b2c9291906126cd565b60405160208183030381529060405292505050610b52565b610b4d84611786565b925050505b919050565b6000600560008473ffffffffffffffffffffffffffffffffffffffff1673ffffffffffffffffffffffffffffffffffffffff16815260200190815260200160002060008373ffffffffffffffffffffffffffffffffffffffff1673ffffffffffffffffffffffffffffffffffffffff16815260200190815260200160002060009054906101000a900460ff16905092915050565b610bf36112fc565b600073ffffffffffffffffffffffffffffffffffffffff168173ffffffffffffffffffffffffffffffffffffffff1603610c655760006040517f1e4fbdf7000000000000000000000000000000000000000000000000000000008152600401610c5c919061217b565b60405180910390fd5b610c6e81611383565b50565b6000600c54341015610cb8576040517f08c379a0000000000000000000000000000000000000000000000000000000008152600401610caf9061273d565b60405180910390fd5b600e5460095410610cfe576040517f08c379a0000000000000000000000000000000000000000000000000000000008152600401610cf5906127a9565b60405180910390fd5b600d54600a60003373ffffffffffffffffffffffffffffffffffffffff1673ffffffffffffffffffffffffffffffffffffffff16815260200190815260200160002060009054906101000a900460ff1660ff1610610d91576040517f08c379a0000000000000000000000000000000000000000000000000000000008152600401610d8890612815565b60405180910390fd5b6000600b83604051610da39190612835565b908152602001604051809103902060009054906101000a900460ff1660ff1614610e02576040517f08c379a0000000000000000000000000000000000000000000000000000000008152600401610df990612898565b60405180910390fd5b6001600b83604051610e149190612835565b908152602001604051809103902060008282829054906101000a900460ff16610e3d91906128f4565b92506101000a81548160ff021916908360ff1602179055506001600a60003373ffffffffffffffffffffffffffffffffffffffff1673ffffffffffffffffffffffffffffffffffffffff16815260200190815260200160002060008282829054906101000a900460ff16610eb191906128f4565b92506101000a81548160ff021916908360ff160217905550600160086000828254610edc9190612929565b92505081905550600160096000828254610ef69190612929565b9250508190555060006008549050610f0e33826117ef565b610f1881846118e8565b80915050919050565b60007f80ac58cd000000000000000000000000000000000000000000000000000000007bffffffffffffffffffffffffffffffffffffffffffffffffffffffff1916827bffffffffffffffffffffffffffffffffffffffffffffffffffffffff19161480610fec57507f5b5e139f000000000000000000000000000000000000000000000000000000007bffffffffffffffffffffffffffffffffffffffffffffffffffffffff1916827bffffffffffffffffffffffffffffffffffffffffffffffffffffffff1916145b80610ffc5750610ffb82611944565b5b9050919050565b60008061100f836119ae565b9050600073ffffffffffffffffffffffffffffffffffffffff168173ffffffffffffffffffffffffffffffffffffffff160361108257826040517f7e2732890000000000000000000000000000000000000000000000000000000081526004016110799190612264565b60405180910390fd5b80915050919050565b60006004600083815260200190815260200160002060009054906101000a900473ffffffffffffffffffffffffffffffffffffffff169050919050565b600033905090565b6110dd83838360016119eb565b505050565b6000806110ee846119ae565b9050600073ffffffffffffffffffffffffffffffffffffffff168373ffffffffffffffffffffffffffffffffffffffff16146111305761112f818486611bb0565b5b600073ffffffffffffffffffffffffffffffffffffffff168173ffffffffffffffffffffffffffffffffffffffff16146111c1576111726000856000806119eb565b6001600360008373ffffffffffffffffffffffffffffffffffffffff1673ffffffffffffffffffffffffffffffffffffffff168152602001908152602001600020600082825403925050819055505b600073ffffffffffffffffffffffffffffffffffffffff168573ffffffffffffffffffffffffffffffffffffffff1614611244576001600360008773ffffffffffffffffffffffffffffffffffffffff1673ffffffffffffffffffffffffffffffffffffffff168152602001908152602001600020600082825401925050819055505b846002600086815260200190815260200160002060006101000a81548173ffffffffffffffffffffffffffffffffffffffff021916908373ffffffffffffffffffffffffffffffffffffffff160217905550838573ffffffffffffffffffffffffffffffffffffffff168273ffffffffffffffffffffffffffffffffffffffff167fddf252ad1be2c89b69c2b068fc378daa952ba7f163c4a11628f55a4df523b3ef60405160405180910390a4809150509392505050565b6113046110c8565b73ffffffffffffffffffffffffffffffffffffffff16611322610943565b73ffffffffffffffffffffffffffffffffffffffff1614611381576113456110c8565b6040517f118cdaa7000000000000000000000000000000000000000000000000000000008152600401611378919061217b565b60405180910390fd5b565b6000600760009054906101000a900473ffffffffffffffffffffffffffffffffffffffff16905081600760006101000a81548173ffffffffffffffffffffffffffffffffffffffff021916908373ffffffffffffffffffffffffffffffffffffffff1602179055508173ffffffffffffffffffffffffffffffffffffffff168173ffffffffffffffffffffffffffffffffffffffff167f8be0079c531659141344cd1fd0a4f28419497f9722a3daafe3b4186f6b6457e060405160405180910390a35050565b600073ffffffffffffffffffffffffffffffffffffffff168273ffffffffffffffffffffffffffffffffffffffff16036114ba57816040517f5b08ba180000000000000000000000000000000000000000000000000000000081526004016114b1919061217b565b60405180910390fd5b80600560008573ffffffffffffffffffffffffffffffffffffffff1673ffffffffffffffffffffffffffffffffffffffff16815260200190815260200160002060008473ffffffffffffffffffffffffffffffffffffffff1673ffffffffffffffffffffffffffffffffffffffff16815260200190815260200160002060006101000a81548160ff0219169083151502179055508173ffffffffffffffffffffffffffffffffffffffff168373ffffffffffffffffffffffffffffffffffffffff167f17307eab39ab6107e8899845ad3d59bd9653f200f220920489ca2b5937696c31836040516115ab919061200a565b60405180910390a3505050565b60008373ffffffffffffffffffffffffffffffffffffffff163b1115611769578273ffffffffffffffffffffffffffffffffffffffff1663150b7a026115fc6110c8565b8685856040518563ffffffff1660e01b815260040161161e94939291906129b2565b6020604051808303816000875af192505050801561165a57506040513d601f19601f820116820180604052508101906116579190612a13565b60015b6116de573d806000811461168a576040519150601f19603f3d011682016040523d82523d6000602084013e61168f565b606091505b5060008151036116d657836040517f64a0ae920000000000000000000000000000000000000000000000000000000081526004016116cd919061217b565b60405180910390fd5b805181602001fd5b63150b7a0260e01b7bffffffffffffffffffffffffffffffffffffffffffffffffffffffff1916817bffffffffffffffffffffffffffffffffffffffffffffffffffffffff19161461176757836040517f64a0ae9200000000000000000000000000000000000000000000000000000000815260040161175e919061217b565b60405180910390fd5b505b50505050565b606060405180602001604052806000815250905090565b606061179182611003565b50600061179c61176f565b905060008151116117bc57604051806020016040528060008152506117e7565b806117c684611c74565b6040516020016117d79291906126cd565b6040516020818303038152906040525b915050919050565b600073ffffffffffffffffffffffffffffffffffffffff168273ffffffffffffffffffffffffffffffffffffffff16036118615760006040517f64a0ae92000000000000000000000000000000000000000000000000000000008152600401611858919061217b565b60405180910390fd5b600061186f838360006110e2565b9050600073ffffffffffffffffffffffffffffffffffffffff168173ffffffffffffffffffffffffffffffffffffffff16146118e35760006040517f73c6ac6e0000000000000000000000000000000000000000000000000000000081526004016118da919061217b565b60405180910390fd5b505050565b806006600084815260200190815260200160002090816119089190612bec565b507ff8e1a15aba9398e019f0b49df1a4fde98ee17ae345cb5f6b5e2c27f5033e8ce7826040516119389190612264565b60405180910390a15050565b60007f01ffc9a7000000000000000000000000000000000000000000000000000000007bffffffffffffffffffffffffffffffffffffffffffffffffffffffff1916827bffffffffffffffffffffffffffffffffffffffffffffffffffffffff1916149050919050565b60006002600083815260200190815260200160002060009054906101000a900473ffffffffffffffffffffffffffffffffffffffff169050919050565b8080611a245750600073ffffffffffffffffffffffffffffffffffffffff168273ffffffffffffffffffffffffffffffffffffffff1614155b15611b58576000611a3484611003565b9050600073ffffffffffffffffffffffffffffffffffffffff168373ffffffffffffffffffffffffffffffffffffffff1614158015611a9f57508273ffffffffffffffffffffffffffffffffffffffff168173ffffffffffffffffffffffffffffffffffffffff1614155b8015611ab25750611ab08184610b57565b155b15611af457826040517fa9fbf51f000000000000000000000000000000000000000000000000000000008152600401611aeb919061217b565b60405180910390fd5b8115611b5657838573ffffffffffffffffffffffffffffffffffffffff168273ffffffffffffffffffffffffffffffffffffffff167f8c5be1e5ebec7d5bd14f71427d1e84f3dd0314c0f7b2291e5b200ac8c7c3b92560405160405180910390a45b505b836004600085815260200190815260200160002060006101000a81548173ffffffffffffffffffffffffffffffffffffffff021916908373ffffffffffffffffffffffffffffffffffffffff16021790555050505050565b611bbb838383611d42565b611c6f57600073ffffffffffffffffffffffffffffffffffffffff168373ffffffffffffffffffffffffffffffffffffffff1603611c3057806040517f7e273289000000000000000000000000000000000000000000000000000000008152600401611c279190612264565b60405180910390fd5b81816040517f177e802f000000000000000000000000000000000000000000000000000000008152600401611c66929190612cbe565b60405180910390fd5b505050565b606060006001611c8384611e03565b01905060008167ffffffffffffffff811115611ca257611ca1612322565b5b6040519080825280601f01601f191660200182016040528015611cd45781602001600182028036833780820191505090505b509050600082602001820190505b600115611d37578080600190039150507f3031323334353637383961626364656600000000000000000000000000000000600a86061a8153600a8581611d2b57611d2a612ce7565b5b04945060008503611ce2575b819350505050919050565b60008073ffffffffffffffffffffffffffffffffffffffff168373ffffffffffffffffffffffffffffffffffffffff1614158015611dfa57508273ffffffffffffffffffffffffffffffffffffffff168473ffffffffffffffffffffffffffffffffffffffff161480611dbb5750611dba8484610b57565b5b80611df957508273ffffffffffffffffffffffffffffffffffffffff16611de18361108b565b73ffffffffffffffffffffffffffffffffffffffff16145b5b90509392505050565b600080600090507a184f03e93ff9f4daa797ed6e38ed64bf6a1f0100000000000000008310611e61577a184f03e93ff9f4daa797ed6e38ed64bf6a1f0100000000000000008381611e5757611e56612ce7565b5b0492506040810190505b6d04ee2d6d415b85acef81000000008310611e9e576d04ee2d6d415b85acef81000000008381611e9457611e93612ce7565b5b0492506020810190505b662386f26fc100008310611ecd57662386f26fc100008381611ec357611ec2612ce7565b5b0492506010810190505b6305f5e1008310611ef6576305f5e1008381611eec57611eeb612ce7565b5b0492506008810190505b6127108310611f1b576127108381611f1157611f10612ce7565b5b0492506004810190505b60648310611f3e5760648381611f3457611f33612ce7565b5b0492506002810190505b600a8310611f4d576001810190505b80915050919050565b6000604051905090565b600080fd5b600080fd5b60007fffffffff0000000000000000000000000000000000000000000000000000000082169050919050565b611f9f81611f6a565b8114611faa57600080fd5b50565b600081359050611fbc81611f96565b92915050565b600060208284031215611fd857611fd7611f60565b5b6000611fe684828501611fad565b91505092915050565b60008115159050919050565b61200481611fef565b82525050565b600060208201905061201f6000830184611ffb565b92915050565b600081519050919050565b600082825260208201905092915050565b60005b8381101561205f578082015181840152602081019050612044565b60008484015250505050565b6000601f19601f8301169050919050565b600061208782612025565b6120918185612030565b93506120a1818560208601612041565b6120aa8161206b565b840191505092915050565b600060208201905081810360008301526120cf818461207c565b905092915050565b6000819050919050565b6120ea816120d7565b81146120f557600080fd5b50565b600081359050612107816120e1565b92915050565b60006020828403121561212357612122611f60565b5b6000612131848285016120f8565b91505092915050565b600073ffffffffffffffffffffffffffffffffffffffff82169050919050565b60006121658261213a565b9050919050565b6121758161215a565b82525050565b6000602082019050612190600083018461216c565b92915050565b61219f8161215a565b81146121aa57600080fd5b50565b6000813590506121bc81612196565b92915050565b600080604083850312156121d9576121d8611f60565b5b60006121e7858286016121ad565b92505060206121f8858286016120f8565b9150509250929050565b60008060006060848603121561221b5761221a611f60565b5b6000612229868287016121ad565b935050602061223a868287016121ad565b925050604061224b868287016120f8565b9150509250925092565b61225e816120d7565b82525050565b60006020820190506122796000830184612255565b92915050565b60006020828403121561229557612294611f60565b5b60006122a3848285016121ad565b91505092915050565b6122b581611fef565b81146122c057600080fd5b50565b6000813590506122d2816122ac565b92915050565b600080604083850312156122ef576122ee611f60565b5b60006122fd858286016121ad565b925050602061230e858286016122c3565b9150509250929050565b600080fd5b600080fd5b7f4e487b7100000000000000000000000000000000000000000000000000000000600052604160045260246000fd5b61235a8261206b565b810181811067ffffffffffffffff8211171561237957612378612322565b5b80604052505050565b600061238c611f56565b90506123988282612351565b919050565b600067ffffffffffffffff8211156123b8576123b7612322565b5b6123c18261206b565b9050602081019050919050565b82818337600083830152505050565b60006123f06123eb8461239d565b612382565b90508281526020810184848401111561240c5761240b61231d565b5b6124178482856123ce565b509392505050565b600082601f83011261243457612433612318565b5b81356124448482602086016123dd565b91505092915050565b6000806000806080858703121561246757612466611f60565b5b6000612475878288016121ad565b9450506020612486878288016121ad565b9350506040612497878288016120f8565b925050606085013567ffffffffffffffff8111156124b8576124b7611f65565b5b6124c48782880161241f565b91505092959194509250565b600080604083850312156124e7576124e6611f60565b5b60006124f5858286016121ad565b9250506020612506858286016121ad565b9150509250929050565b600067ffffffffffffffff82111561252b5761252a612322565b5b6125348261206b565b9050602081019050919050565b600061255461254f84612510565b612382565b9050828152602081018484840111156125705761256f61231d565b5b61257b8482856123ce565b509392505050565b600082601f83011261259857612597612318565b5b81356125a8848260208601612541565b91505092915050565b6000602082840312156125c7576125c6611f60565b5b600082013567ffffffffffffffff8111156125e5576125e4611f65565b5b6125f184828501612583565b91505092915050565b7f4e487b7100000000000000000000000000000000000000000000000000000000600052602260045260246000fd5b6000600282049050600182168061264157607f821691505b602082108103612654576126536125fa565b5b50919050565b600060608201905061266f600083018661216c565b61267c6020830185612255565b612689604083018461216c565b949350505050565b600081905092915050565b60006126a782612025565b6126b18185612691565b93506126c1818560208601612041565b80840191505092915050565b60006126d9828561269c565b91506126e5828461269c565b91508190509392505050565b7f46756e647320696e73756666696369656e740000000000000000000000000000600082015250565b6000612727601283612030565b9150612732826126f1565b602082019050919050565b600060208201905081810360008301526127568161271a565b9050919050565b7f4d617820737570706c7920657863656564656400000000000000000000000000600082015250565b6000612793601383612030565b915061279e8261275d565b602082019050919050565b600060208201905081810360008301526127c281612786565b9050919050565b7f496e646976696475616c206c696d697420657863656564656400000000000000600082015250565b60006127ff601983612030565b915061280a826127c9565b602082019050919050565b6000602082019050818103600083015261282e816127f2565b9050919050565b6000612841828461269c565b915081905092915050565b7f4e465420616c7265616479206d696e7465640000000000000000000000000000600082015250565b6000612882601283612030565b915061288d8261284c565b602082019050919050565b600060208201905081810360008301526128b181612875565b9050919050565b600060ff82169050919050565b7f4e487b7100000000000000000000000000000000000000000000000000000000600052601160045260246000fd5b60006128ff826128b8565b915061290a836128b8565b9250828201905060ff811115612923576129226128c5565b5b92915050565b6000612934826120d7565b915061293f836120d7565b9250828201905080821115612957576129566128c5565b5b92915050565b600081519050919050565b600082825260208201905092915050565b60006129848261295d565b61298e8185612968565b935061299e818560208601612041565b6129a78161206b565b840191505092915050565b60006080820190506129c7600083018761216c565b6129d4602083018661216c565b6129e16040830185612255565b81810360608301526129f38184612979565b905095945050505050565b600081519050612a0d81611f96565b92915050565b600060208284031215612a2957612a28611f60565b5b6000612a37848285016129fe565b91505092915050565b60008190508160005260206000209050919050565b60006020601f8301049050919050565b600082821b905092915050565b600060088302612aa27fffffffffffffffffffffffffffffffffffffffffffffffffffffffffffffffff82612a65565b612aac8683612a65565b95508019841693508086168417925050509392505050565b6000819050919050565b6000612ae9612ae4612adf846120d7565b612ac4565b6120d7565b9050919050565b6000819050919050565b612b0383612ace565b612b17612b0f82612af0565b848454612a72565b825550505050565b600090565b612b2c612b1f565b612b37818484612afa565b505050565b5b81811015612b5b57612b50600082612b24565b600181019050612b3d565b5050565b601f821115612ba057612b7181612a40565b612b7a84612a55565b81016020851015612b89578190505b612b9d612b9585612a55565b830182612b3c565b50505b505050565b600082821c905092915050565b6000612bc360001984600802612ba5565b1980831691505092915050565b6000612bdc8383612bb2565b9150826002028217905092915050565b612bf582612025565b67ffffffffffffffff811115612c0e57612c0d612322565b5b612c188254612629565b612c23828285612b5f565b600060209050601f831160018114612c565760008415612c44578287015190505b612c4e8582612bd0565b865550612cb6565b601f198416612c6486612a40565b60005b82811015612c8c57848901518255600182019150602085019450602081019050612c67565b86831015612ca95784890151612ca5601f891682612bb2565b8355505b6001600288020188555050505b505050505050565b6000604082019050612cd3600083018561216c565b612ce06020830184612255565b9392505050565b7f4e487b7100000000000000000000000000000000000000000000000000000000600052601260045260246000fdfea26469706673582212205dc4b5b63491d968bddf67559f97af327b221e332822c52ec415b1c5321d1fea64736f6c63430008140033",
    "linkReferences": {},
    "deployedLinkReferences": {}
}